:10063F00C205E4F535F530F531D204F532F53490D5
:10064F00E6007412F090E6017403F090E61804F0DF
:10065F0090E619F090E61AF090E61BF075B51C7C49
:10066F00638CCB74C0F5CAE4F58E75C804D2AFD2D3
:10067F00B0D2B190E61074A0F090E611F000000037
:10068F0090E61274A2F000000090E61374A0F00040
:10069F00000090E61474E2F000000090E61574E09C
:1006AF00F000000090E6917480F000000090E69555
:1006BF00F000000090E691F000000090E695F0D277
:0106CF00002A
:0106D0002207
:100A370074002534F582E434E0F583EFF0E53404FF
:0B0A4700F5340531E531700205302266
:1004C30020050302063E90E6A2E030E10302056444
:0B04D300D3E5319400E5309400406E4A
:1004DE007AE779C07EE77FC074E7F59D74C0F59E1C
:1004EE0090E67C7431F07460F0D3E531943EE530E3
:1004FE009400401175193EE5319519F531E53094AA
:10050E0000F5308008853119E4F530F5318519187C
:10051E0074E0F59A85329BAF191519EF600E90E6CF
:10052E007BE090E67CF074E0F59A80EB859B3200E0
:0C053E000000E518240290E68FF0D2CFF8
:10054A00801830CF1590E7C07431F0A37460F000C2
:10055A00000090E68F7402F0C2CFE5AA30E00302F1
:10056A00063EC3E53194C1E5309400400302063EDD
:10057A0090E691E0F5197AF079007EF07F0074F048
:10058A00F59A7400F59BE4F518E518C3951940032C
:09059A00020635E53594004045E8
:1005A300E5199518F51AE535C3951A500385351ADB
:1005B300C3E535951AF535E51A2518F518300411F4
:1005C300AF1A151AEF60C990E67BE0FF12079A8015
:1005D300EFAF1A151AEF60B890E67BE0FF1207D56C
:0505E300120A3780EC54
:1005E80090E67BE0F51A30E603C38001D39204E578
:1005F8001A30E706543FF535802EE51A30E003D36C
:100608008001C392B3E51A30E103D38001C392B4E9
:10061800E51A30E403D38001C392B220040AA2B1E0
:0A062800E4334402FF120A370518FC
:0C06320002059300000090E6917480F037
:01063E002299
:020B1A00D322E4
:020B1C00D322E2
:020B1E00D322E0
:080B060090E6BAE0F533D322BA
:100AAE0090E740E533F0E490E68AF090E68B04F0B0
:020ABE00D32241
:080B0E0090E6BAE0F52FD322B6
:100AC00090E740E52FF0E490E68AF090E68B04F0A2
:020AD000D3222F
:0D0AE30090E6B8E0B44004D205C322D3224F
:020B2000D322DE
:020B2200D322DC
:1009B80090E6B9E0B49009E490E740F0A3F0800A2B
:1009C80090E7407436F0A37483F0E490E68AF090E0
:0E09D800E68B7402F090E6A0E04480F0C322AB
:100A5200C0E0C083C082D2015391EF90E65D740181
:080A6200F0D082D083D0E03215
:100A8200C0E0C083C0825391EF90E65D7404F0D061
:060A920082D083D0E032A7
:100A9800C0E0C083C0825391EF90E65D7402F0D04D
:060AA80082D083D0E03291
:10086600C0E0C083C08290E680E030E70E85212597
:10087600852226852927852A28800C852925852AEB
:10088600268521278522285391EF90E65D7410F086
:07089600D082D083D0E032D4
:100A6A00C0E0C083C082D2035391EF90E65D740860
:080A7A00F0D082D083D0E032FD
:10089D00C0E0C083C08290E680E030E70E85212560
:1008AD00852226852927852A28800C852925852AB4
:1008BD00268521278522285391EF90E65D7420F03F
:0708CD00D082D083D0E0329D
:010B2400329E
:010B2500329D
:010B2600329C
:010B2700329B
:010B2800329A
:010B29003299
:010B2A003298
:010B2B003297
:010B2C003296
:010B2D003295
:010B2E003294
:010B2F003293
:010B30003292
:010B31003291
:010B32003290
:010B3300328F
:010B3400328E
:010B3500328D
:010B3600328C
:010B3700328B
:010B3800328A
:010B39003289
:010B3A003288
:010B3B003287
:010B3C003286
:010B3D003285
:010B3E003284
:010B3F003283
:010B40003282
:010B41003281
:010B42003280
:010B4300327F
:010B4400327E
:010B4500327D
:010B4600327C
:010B4700327B
:100700001201100100000040FB0901600004010219
:1007100003010A061001FFFFFF400100090220004B
:10072000010100804B0904000002FFFFFF020705E2
:10073000810240000007050202400000090220007B
:10074000010100804B0904000002FFFFFF020705C2
:100750008102400000070502024000000403090472
:100760000E03560065006E0064006F0072001803EF
:100770005500530042002D0042006C0061007300E0
:100780007400650072001203300030003000300049
:0A079000300030003000300000009F
:10079A00EF1392B2D2B313C2B392B2D2B313C2B3AB
:1007AA0092B2D2B313C2B392B2D2B313C2B392B259
:1007BA00D2B313C2B392B2D2B313C2B392B2D2B308
:1007CA0013C2B392B2D2B300C2B322EFA2B1139250
:1007DA00B2D2B3C2B3A2B11392B2D2B3C2B3A2B16C
:1007EA001392B2D2B3C2B3A2B11392B2D2B3C2B30A
:1007FA00A2B11392B2D2B3C2B3A2B11392B2D2B31C
:10080A00C2B3A2B11392B2D2B3C2B3A2B11392B21B
:06081A00D2B3C2B3FF22BD
:0A0AFC0000010202030304040505D3
:10031900E4F513F512F511F510C203C200C202C2C9
:100329000112063F7E077F008E238F24752B0775E8
:100339002C1275210775221C752907752A3C752D04
:1003490007752E5CEE54E0700302045D75140075A8
:1003590015808E168F17C374989FFF74079ECF243C
:1003690002CF3400FEE48F0F8E0EF50DF50CF50B60
:10037900F50AF509F508AF0FAE0EAD0DAC0CAB0BD8
:10038900AA0AA909A808C3120AD25026E515250BFD
:10039900F582E514350AF58374CDF0E50B2401F5F2
:1003A9000BE4350AF50AE43509F509E43508F508D9
:1003B90080C4E4F50BF50AF509F508AF0FAE0EADEB
:1003C9000DAC0CAB0BAA0AA909A808C3120AD25092
:1003D90031AE0AAF0BE5172FF582E5163EF583E03E
:1003E900FDE5152FF582E5143EF583EDF0EF2401C7
:1003F900F50BE43EF50AE43509F509E43508F50895
:1004090080B985142385152474002480FF7407346A
:10041900FFFEC3E52C9FF52CE52B9EF52BC3E526A6
:100429009FF526E5259EF525C3E5289FF528E527AF
:100439009EF527C3E5229FF522E5219EF521C3E517
:100449002A9FF52AE5299EF529C3E52E9FF52EE574
:100459002D9EF52DD2E843D82090E668E04409F0B6
:1004690090E65CE0443DF0D2AF90E680E020E10503
:10047900D2061206D190E680E054F7F0538EF8C206
:1004890003300105120080C201300329120B1A50F2
:1004990024C203120A1220001690E682E030E70413
:1004A900E020E1EF90E682E030E604E020E0E412AB
:0A04B90008D4120B1C1204C380C704
:1000800090E6B9E0700302015B14700302020424DD
:10009000FE700302029924FB7003020155147003E1
:1000A00002014F147003020143147003020149243A
:1000B000056003020305120B1E400302031190E6C4
:1000C000BBE024FE602C14604724FD6016146031F0
:1000D00024067065E52390E6B3F0E52490E6B4F0DD
:1000E000020311E52B90E6B3F0E52C90E6B4F002A4
:1000F0000311E52590E6B3F0E52690E6B4F002039F
:1001000011E52790E6B3F0E52890E6B4F00203117C
:1001100090E6BAE0FF1209E6AA06A9077B01EA49C0
:10012000600DEE90E6B3F0EF90E6B4F002031190AC
:10013000E6A0E04401F002031190E6A0E04401F0E3
:10014000020311120AC0020311120B0E0203111254
:100150000B06020311120AAE020311120AE3400356
:1001600002031190E6B8E0247F602B14603C240267
:1001700060030201FAA200E433FF25E0FFA202E4DB
:10018000334F90E740F0E4A3F090E68AF090E68BDE
:100190007402F0020311E490E740F0A3F090E68AC5
:1001A000F090E68B7402F002031190E6BCE0547EFE
:1001B000FF7E00E0D3948040067C007D0180047CBB
:1001C000007D00EC4EFEED4F24FCF582740A3EF5F6
:1001D00083E493FF3395E0FEEF24A1FFEE34E68F36
:1001E00082F583E0540190E740F0E4A3F090E68AC2
:1001F000F090E68B7402F002031190E6A0E0440157
:10020000F0020311120B20400302031190E6B8E044
:1002100024FE601D2402600302031190E6BAE0B4DC
:100220000105C20002031190E6A0E04401F00203C0
:100230001190E6BAE0705990E6BCE0547EFF7E0073
:10024000E0D3948040067C007D0180047C007D002A
:10025000EC4EFEED4F24FCF582740A3EF583E493E8
:10026000FF3395E0FEEF24A1FFEE34E68F82F583A5
:10027000E054FEF090E6BCE05480FF131313541FCB
:10028000FFE0540F2F90E683F0E04420F0020311CA
:1002900090E6A0E04401F08078120B22507390E6C3
:1002A000B8E024FE60202402706790E6BAE0B40152
:1002B00004D200805C90E6BAE06402605490E6A04C
:1002C000E04401F0804B90E6BCE0547EFF7E00E00D
:1002D000D3948040067C007D0180047C007D00EC8E
:1002E0004EFEED4F24FCF582740A3EF583E493FF45
:1002F0003395E0FEEF24A1FFEE34E68F82F583E034
:100300004401F0800C1209B8500790E6A0E04401C7
:08031000F090E6A0E04480F04B
:0103180022C2
:03003300020B16A7
:040B160053D8EF328F
:1008D40090E682E030E004E020E60B90E682E0302F
:1008E400E119E030E71590E680E04401F07F147EE2
:0C08F4000012082090E680E054FEF02284
:100A120090E682E044C0F090E681F0438701000056
:040A220000000022AE
:1006D10030060990E680E0440AF0800790E680E069
:1006E1004408F07FDC7E0512082090E65D74FFF07F
:0F06F10090E65FF05391EF90E680E054F7F0222F
:0209E600A9075F
:1009E800AE2DAF2E8F828E83A3E064037017AD0106
:1009F80019ED7001228F828E83E07C002FFDEC3E82
:090A0800FEAF0580DF7E007F00D7
:010A110022C2
:100820008E188F1990E600E054187012E519240113
:10083000FFE43518C313F518EF13F519801590E68A
:1008400000E05418FFBF100BE51925E0F519E51875
:1008500033F518E5191519AE18700215184E600514
:06086000120A2680EE22C0
:100A26007400F58690FDA57C05A3E582458370F9E3
:010A3600229D
:03004300020900AF
:030053000209009F
:10090000020A5200020A9800020A8200020A6A00E1
:100910000208660002089D00020B2400020B25005D
:10092000020B2600020B2700020B2800020B2900F5
:10093000020B2A00020B2B00020B2C00020B2D00D5
:10094000020B2E00020B2500020B2F00020B3000C1
:10095000020B3100020B3200020B3300020B340099
:10096000020B3500020B2500020B2500020B2500AF
:10097000020B3600020B3700020B3800020B390065
:10098000020B3A00020B3B00020B3C00020B3D0045
:10099000020B3E00020B3F00020B4000020B410025
:1009A000020B4200020B4300020B4400020B450005
:0809B000020B4600020B470098
:03000000020AF001
:0C0AF000787FE4F6D8FD7581350203190B
:100AD200EB9FF5F0EA9E42F0E99D42F0E89C45F07A
:010AE20022F1
:00000001FF
