:06000000020DC602006BB8
:03000B0002006B85
:0300130002006B7D
:03001B0002006B75
:0300230002006B6D
:03002B0002006B65
:0300330002006B5D
:03003B0002006B55
:0300430002006B4D
:03004B0002006B45
:0300530002006B3D
:03005B0002006B35
:0300630002006B2D
:01006B003262
:0900800002006B0002006B00029B
:08008900006B0002006B000295
:08009100006B0002006B00028D
:08009900006B0002006B000285
:0800A100006B0002006B00027D
:0800A900006B0002006B000275
:0700B100006B0002006B0070
:0901000002006B0002006B00021A
:08010900006B0002006B000214
:08011100006B0002006B00020C
:08011900006B0002006B000204
:08012100006B0002006B0002FC
:08012900006B0002006B0002F4
:08013100006B0002006B0002EC
:08013900006B0002006B0002E4
:08014100006B0002006B0002DC
:08014900006B0002006B0002D4
:08015100006B0002006B0002CC
:08015900006B0002006B0002C4
:08016100006B0002006B0002BC
:08016900006B0002006B0002B4
:08017100006B0002006B0002AC
:07017900006B0002006B00A7
:030DCC00020DD441
:030DE700020DCF2B
:050DCF0012048C80FEFF
:06018000C200E4F508F5E1
:0401860009F50AD29B
:05018A0001750B00757A
:06018F000C0012067B12B9
:0E019500067875CB6375CAC0758E0075C804F8
:0E01A300D2AFD2B0D2B190E6047480F00090DA
:0E01B100E60B7403F00090E61074A0F00090CE
:0D01BF00E61174A0F00090E618E4F0009046
:0E01CC00E6047402F00090E61274A2F00090B7
:0D01DA00E619E4F00090E6047404F00090D3
:0D01E700E61374A0F00090E61AE4F000901A
:0E01F400E6047406F00090E61474E2F0009049
:0D020200E61BE4F00090E6047408F00090A4
:0D020F00E61574E0F00090E604E4F00090C5
:0E021C00E60BE4F0000090E6917480F0009094
:0E022A00E6957480F00090E6917480F00090EC
:06023800E6957480F0223F
:0B023E00AA82850C827583E0EAF005BF
:050249000C0509E4B5FD
:04024E000902050A92
:010252002289
:040253002000012264
:0E02570012067790E6A2E0FA30E1030202EB15
:0A026500E509450A60687AC07BE7EE
:0E026F008B9D7AC07BE77B008A9E90E67C74B4
:0C027D0031F07460F0C3743E9509E49504
:0A0289000A50107A3EE50924C2F580
:0602930009E50A34FFF545
:030299000A8007D1
:06029C00AA09E4F509F5D2
:0102A2000A51
:0B02A3008A037C007DE08D9A850B9B98
:0E02AE008A041AEC601090E67BE090E67CF08B
:0802BC007C007DE08D9A80EAD0
:0C02C400859B0B0090E68F74022BF0D29B
:0302D000CF8018C4
:0E02D30030CF1590E7C07431F090E7C1746031
:0A02E100F00090E68F7402F0C2CF27
:0602EB00E5AA30E001224B
:0A02F100C3E50994C1E50A9400403A
:0202FB000122DE
:0E02FD0090E691E0FA7B007CF08C9A7B007C0E
:07030B00F07C008B9B7B00DE
:08031200C3EB9A40030203B99A
:0A031A00E5086057EAC39BFCC3E549
:06032400089C5002AC0829
:0A032A00E508C39CF508EC2BFB303E
:04033400011F8C0514
:0E0338008D061DEE60D490E67BE0F582C002DB
:0E034600C003C0051206CFD005D003D0028040
:01035400E3C5
:0E0355008C051CED60B790E67BE0F582C002DF
:0E036300C003C00412070C12023ED004D003E7
:04037100D00280E056
:0C03750090E67BE0FC30E6047D00800296
:020381007D01FC
:0C038300ED24FF9201EC30E707743F5CB2
:04038F00F5088022CB
:0C03930030010F8C82C002C003120695DE
:06039F00D003D002801023
:0E03A5008C82C002C0031206C512023ED003B5
:0203B300D00276
:0403B5000B02031222
:0803B9000090E6917480F0222F
:0E03C10090E6B8E0FA20E72290E6B9E0FABA3A
:0403CF009202D202C2
:0C03D30090E6B9E0FABA9304D203800867
:0803DF0090E6B9E07002D200C3
:0403E70075820122F8
:0E03EB0090E6B9E0FABA902B90E6BCE025E06F
:0A03F900547FFA2400F582E4341862
:0C040300F583E0FB90E740F0EA042400E1
:0C040F00F582E43418F583E0FA90E74130
:03041B00F0800C62
:0C041E0090E7407436F090E7417483F0E2
:0D042A0090E68AE4F090E6BEE0FABA020027
:09043700500790E6BEE0FA8002D5
:020440007A023E
:0904420090E68BEAF075820122BC
:06044B0020020330033023
:0E045100900032120DB390E680E0FA4408F0FD
:0B045F0030020890E6FB7402F08005FC
:05046A0090E6FBE4F048
:0E046F009000FA120DB390E680E0FA54F7F018
:04047D00C202C203F2
:06048100300403120925FE
:0504870012025380BFCA
:09048C00C2AF1201801204F21249
:060495000CF712088FC2F3
:0A049B0002C20390E6FB7402F0D2E7
:0704A500AF12079E02044B99
:02E1000012010A
:06E10200100100000040C6
:06E10800FB0901600400A8
:04E10E000102030106
:0AE112000A061001FFFFFF400100A4
:07E11C0009022000010100CF
:0EE12300804B0904000002FFFFFF0207058188
:0BE13100024000000705020240000051
:0EE13C001201100100000040FB090160040008
:04E14A0001020301CA
:0AE14E000A061001FFFFFF40010068
:0EE1580009022000010100804B0904000002B2
:0EE16600FFFFFF0207058102400000070502CF
:04E174000240000065
:01E1780004A2
:02E1790082E141
:02E17B0088E139
:02E17D0092E12D
:02E17F00AAE113
:06E1820006030000090481
:0AE188000A034B004E004A004E004F
:0EE1920018035500530042002D0042006C009F
:0AE1A0006100730074006500720056
:0EE1AA00120330003000300030003000300032
:04E1B8003000300003
:0A04AC00AA82E50D54FEFBB50D0217
:0204B60080299B
:0A04B8008A048C05E4620EED620F69
:0A04C200EB2400F582E43418F58302
:0A04CC00E0FB7C00620EEC620FE51D
:0604D6000E33C50F33C513
:0504DC000F92E0F50E97
:0604E100AB0D050DEB243C
:0A04E70000F582E43418F583EAF012
:0104F10022E8
:0704F200750D00750EAA75DF
:0C04F9000FAA7582001204AC758200127C
:0405050004AC7A00C8
:0C050900C3EA648094865017EA2408F5C9
:0C05150082E434E1F583E0F582C00212BC
:0705210004ACD0020A80E1E6
:020528007A0057
:0C052A00C3EA648094825017EA2423F591
:0C05360082E434E1F583E0F582C002129B
:0705420004ACD0020A80E1C5
:0E05490075821C1204AC7582001204AC7A009C
:0C055700C3EA648094825017EA2402F585
:0C05630082E434E1F583E0F582C002126E
:07056F0004ACD0020A80E198
:0C0576007486250DFAF582C0021204AC58
:0C05820090E188E0F5821204ACD00290F9
:0D058E00E188E02AFAF582C0021204AC9068
:0B059B00E192E0F5821204ACD0029067
:0A05A600E192E02AF5821204AC9005
:0A05B000E1AAE0F5821204AC7A0023
:0E05BA0090E188E0FBC3EA64808BF063F08080
:0B05C80095F05017EA2488F582E43417
:0C05D300E1F583E0F582C0021204ACD018
:0405DF00020A80D7B5
:0205E3007A009C
:0E05E50090E192E0FBC3EA64808BF063F0804B
:0B05F30095F05017EA2492F582E434E2
:0C05FE00E1F583E0F582C0021204ACD0ED
:04060A00020A80D789
:02060E007A0070
:0E06100090E1AAE0FBC3EA64808BF063F08007
:0B061E0095F05017EA24AAF582E4349E
:0C062900E1F583E0F582C0021204ACD0C1
:04063500020A80D75E
:020639007A0045
:0C063B00C3EA648094845017EA240EF592
:0C06470082E434E1F583E0F582C0021289
:0706530004ACD0020A80E1B3
:0C065A007482250D40087582001204AC6B
:0206660080F220
:08066800AA0E90187EEAF0AA28
:070670000F90187FEAF02251
:010677002260
:01067800225F
:01067900225E
:01067A00225D
:0E067B0090E6007412F090E60174E0F0AAB56B
:0C06890074FD5AF5F0741C45F0F5B52224
:0A069500E582FA30E0047B018002E8
:02069F007B00DE
:0D06A100EB24FF92B3EA30E1047B018002FC
:0206AE007B00CF
:0D06B000EB24FF92B4EA30E4047A018002EA
:0206BD007A00C1
:0606BF00EA24FF92B222C2
:0A06C500120695A2B1E433F582227B
:0E06CF00E5821392B2D2B313C2B392B2D2B389
:0E06DD0013C2B392B2D2B313C2B392B2D2B36D
:0E06EB0013C2B392B2D2B313C2B392B2D2B35F
:0E06F90013C2B392B2D2B313C2B392B2D2B351
:0507070000C2B3222234
:0E070C00E582A2B11392B2D2B3C2B3A2B1136E
:0E071A0092B2D2B3C2B3A2B11392B2D2B3C2A2
:0E072800B3A2B11392B2D2B3C2B3A2B1139274
:0E073600B2D2B3C2B3A2B11392B2D2B3C2B365
:0E074400A2B11392B2D2B3C2B3A2B11392B259
:08075200D2B3C2B3F5822222EA
:08075A007880E84400600C798E
:0C07620001901800E4F0A3D8FCD9FAD0F4
:0E076E0083D082F6D8FDC082C083758200223F
:08077C0090E6A0E04401F02228
:0E078400AA8274805AC423541FFB740F5A902B
:0C079200E6834BF090E683E04420F02268
:0E079E0090E680E0440AF09000FA120DB3904D
:0E07AC00E65D74FFF090E65F74FFF05391EF8E
:0807BA0090E680E054F7F02204
:060DE100E478FFF6D8FDE6
:060DC6007510007511001C
:0A07C20090E680E0FA30E7197512A6
:0307CC00007513A2
:0307CF00E17514BD
:0307D20012751588
:0307D500E17516B5
:0307D8001C751776
:0307DB00E17518AD
:0307DE0058751932
:0207E100E12213
:0407E30075123C75DA
:0307E70013E175A6
:0307EA00144E7535
:0307ED0015E1759E
:0307F00016587523
:0307F30017E17596
:0307F600181C7557
:0307F90019E122E1
:0907FC005391EF75A100D2043203
:0C080500C021C0E0C0F0C082C083C0026F
:0E081100C003C004C005C006C007C000C0017F
:0E081F00C0D075D0005391EF75A1001207C232
:0E082D00D0D0D001D000D007D006D005D00426
:0D083B00D003D002D083D082D0F0D0E0D026
:0208480021325B
:0C084A00C021C0E0C0F0C082C083C0022A
:0E085600C003C004C005C006C007C000C0013A
:0E086400C0D075D0005391EF75A1001207C2ED
:0E087200D0D0D001D000D007D006D005D004E1
:0D088000D003D002D083D082D0F0D0E0D0E1
:02088D00213216
:05088F001207C2751AFA
:03089400FC751BD5
:0808970007758200120C4E757A
:03089F001A0575C2
:0608A2001B087582101214
:0408A8000C4E751A63
:0308AC004A751B6F
:0C08AF0008758214120C4E90E65C743147
:0208BB00F02229
:0D08BD00E582547FFA24F750047582002272
:0708CA00BA0104758201224E
:0808D100530201E4BA00010426
:0308D900F5822283
:0E08DC00AA82BA010C90E6A1E0FB7C008B82A0
:0308EA008C8322DA
:0E08ED00BA810C90E6A2E0FB7C008B828C832B
:0108FB0022DA
:0E08FC0053027FEA700C90E6A0E0FB7C008BBC
:04090A00828C832236
:0E090E0090E6A3E0FB7C00EAC313FA7D00EA4A
:09091C002BFBED3C8B82F58322DC
:0C092500C20490E6B8E0FA530260BA0089
:0309310002802819
:05093400BA2002800D55
:05093900BA4002800E2F
:05093E00BA6002800315
:03094300020BE3C1
:0609460012077C020BE326
:0A094C001203C1E5826003020BE311
:0609560012077C020BE316
:0D095C0090E6B8E0FA530280BA80028003F2
:03096900020AE49B
:0B096C0090E6B9E0FABA0003020A5D51
:05097700BA0602803504
:05097C00BA080280082A
:05098100BA0A02801714
:03098600020ADE84
:0C09890090E740E510F090E68AE4F09062
:08099500E68B7401F0020BE394
:0C099D0090E740E511F090E68AE4F0904D
:0809A900E68B7401F0020BE380
:0A09B10090E6BBE0FABA01028017DD
:0509BB00BA02028038C1
:0509C000BA030280599A
:0509C500BA0602801BD0
:0509CA00BA0702803CA9
:0309CF00020A57C2
:0A09D200AA12AB1390E6B3EBF07B22
:0909DC000090E6B4EAF0020BE31E
:0A09E500AA14AB1590E6B3EBF07B0B
:0909EF000090E6B4EAF0020BE30B
:0A09F800AA16AB1790E6B3EBF07BF4
:090A02000090E6B4EAF0020BE3F7
:0A0A0B00AA18AB1990E6B3EBF07BDC
:090A15000090E6B4EAF0020BE3E4
:0E0A1E0090E6BAE0FA90E178E0FBC3EA9B4074
:070A2C000612077C020BE338
:0C0A330090E6BAE075F002A42479F58288
:0B0A3F0074E135F0F583E0FAA3E090CD
:0D0A4A00E6B3F07B0090E6B4EAF0020BE3A7
:060A570012077C020BE314
:0D0A5D0090E6B8E0FA53021FBA0002800ACA
:050A6A00BA0102801B2F
:050A6F00BA0266802CB4
:0E0A740090E740E4F090E741F090E68AF090C1
:080A8200E68B7402F0020BE3A5
:0E0A8A0090E740E4F090E741F090E68AF090AB
:080A9800E68B7402F0020BE38F
:0E0AA00090E6BCE0F5821208BDE5826025906C
:0E0AAE00E6BCE0F5821208DCE0FA530201908B
:0E0ABC00E740EAF090E741E4F090E68AF0901F
:080ACA00E68B7402F0020BE35D
:060AD20012077C020BE399
:060AD80012077C020BE393
:060ADE0012077C020BE38D
:0C0AE40090E6B9E0FA24F45003020BE0A5
:070AF000EA2A2A900AF773BD
:070AF700020BE0020B2D02CF
:060AFE000BA8020B8902A7
:060B04000BE0020BE00211
:060B0A000BE0020BE0020B
:060B10000BE0020B1B02CA
:050B16000BE0020B24BE
:090B1B0090E6BAE0F510020BE3CC
:090B240090E6BAE0F511020BE3C2
:0D0B2D0090E6B8E0FA53021FBA00028005FE
:050B3A00BA0247800A29
:0A0B3F0090E6BAE012077C020BE317
:0D0B490090E6BAE0703090E6BCE0F5821254
:0D0B560008BDE582602390E6BCE0F5821248
:0E0B630008DCAA82AB83E0FC5304FE8A828B7E
:0E0B710083ECF090E6BCE0F58212078480640D
:050B7F0012077C805FFD
:050B840012077C805AFD
:0E0B890090E6B8E0FA53021FBA004F90E6BAA9
:070B9700E0FABA010280053B
:050B9E00BA02028040D4
:050BA30012077C803BFD
:0E0BA80090E6BAE0FA702C90E6BCE0F58212FE
:0D0BB60008BDE582601A90E6BCE0F58212F1
:0E0BC30008DCAA82AB83E0FC4304018A828B2B
:050BD10083ECF0800D33
:050BD60012077C8008FD
:050BDB0012077C8003FD
:030BE00012077C7D
:080BE30090E6A0E04480F0223E
:050BEB00AA82BA03001C
:070BF0004005EA249C5001BE
:010BF70022DB
:090BF800740F5AFBBB03028007D5
:070C0100740F5AFBBB0B4509
:0A0C0800A2AF9205C2AFEA2400F586
:0C0C120082E43400F5837402F07B00746F
:0C0C1E00012AFCE43BFDEC2400F582ED13
:0A0C2A003400F583E51BFCF07402B2
:0C0C34002AFAE43BFBEA2400F582EB34D2
:0A0C400000F583AA1A7B00EAF0A277
:030C4A000592AF61
:010C4D002284
:080C4E00E582FA248350012223
:070C560074035AFB60012248
:0A0C5D00A2AF9206C2AFEA2400F530
:0C0C670082E43401F5837402F07B007419
:0C0C7300012AFCE43BFDEC2400F582EDBE
:0A0C7F003401F583E51BF074022A2E
:0B0C8900FAE43BFBEA2400F582EB34A8
:080C940001F583AA1AEAF0A29F
:040C9C000692AF22EB
:050CA000AA82BA8000E9
:070CA5004005EA244B500159
:010CAC002225
:070CAD0074035AFB600122F1
:0A0CB400A2AF9207C2AFEA2480F558
:0C0CBE0082E43400F5837402F07B0074C3
:0C0CCA00012AFCE43BFDEC2480F582EDE7
:0A0CD6003400F583E51BF074022AD8
:0B0CE000FAE43BFBEA2480F582EB34D1
:080CEB0000F583AA1AEAF0A249
:040CF3000792AF2293
:080CF700C2E8C2EA751A00759B
:060CFF001B017582431287
:040D05000BEB751A65
:030D090080751BD7
:0C0D0C0000758253120BEB0090E650E4DF
:0E0D1800F00090E652E4F00090E654E4F000A3
:0E0D260090E656E4F00090E65174FFF0009065
:0E0D3400E65374FFF00090E65574FFF0009057
:0E0D4200E65774FFF00090E658E4F090E65992
:0E0D500074FFF090E65AE4F090E65B74FFF05A
:0E0D5E0090E65CE4F090E65D74FFF090E65ED7
:0E0D6C00E4F090E65F74FFF00090E660E4F0C3
:0D0D7A000090E66174FFF090E662E4F090F6
:0E0D8700E66374FFF090E665E4F090E66874B1
:0A0D95000BF05391AFD2E8D2EA222E
:010D9F002231
:020DA000AA8225
:060DA200120D9FDAFB2296
:030DA80090FB506D
:080DAB00A3E582458370F922E3
:040DB300AA82AB83E2
:080DB700120DA81ABAFF011B7E
:070DBF00BA00F5BB00F222AF
:030DD40075812105
:0A0DD70012075AE5826003020DCFF7
:00000001FF
